:100000000C945D000C9485000C9485000C94850084
:100010000C9485000C9485000C9485000C9485004C
:100020000C9485000C9485000C9485000C9485003C
:100030000C9485000C9485000C9485000C9485002C
:100040000C941D040C9485000C94EB030C94C503D4
:100050000C9485000C9485000C9485000C9485000C
:100060000C9485000C94850000000008000201003B
:100070000003040700000000000000000000000072
:10008000250028002B0000000000240027002A0083
:10009000040404040404040402020202020203032E
:1000A0000303030301020408102040800102040836
:1000B00010200102040810207E0611241FBECFEF7D
:1000C000D8E0DEBFCDBF11E0A0E0B1E0EEEEF2E19E
:1000D00002C005900D92A037B107D9F722E0A0E742
:1000E000B1E001C01D92AA31B207E1F710E0CDE501
:1000F000D0E004C02197FE010E94CD06CC35D10787
:10010000C9F70E9467040C9475090C9400002FB77E
:10011000F8948091750190917601A0917701B0914A
:1001200078012FBF8093810190938201A093830176
:10013000B0938401E0917901F0917A010680F78112
:10014000E02D89E791E0099597FF26C02FB7F89435
:100150008091750190917601A0917701B09178011D
:100160002FBF409181015091820160918301709174
:100170008401841B950BA60BB70B40917D01509118
:100180007E0160917F017091800184179507A60719
:10019000B70780F28FEF9FEF089590E0FC01EC55D8
:1001A000FF4F2491FC01E057FF4F8491882399F081
:1001B00090E0880F991FFC01EA57FF4FA591B49179
:1001C000FC01E458FF4F859194918FB7F894EC911E
:1001D000E22BEC938FBF0895CF92DF92EF92FF92C4
:1001E0000F931F93CF93DF936C017A018B01C0E0D3
:1001F000D0E0CE15DF0589F0D8016D918D01D601D3
:10020000ED91FC910190F081E02DC6010995892BBB
:1002100011F47E0102C02196ECCFC701DF91CF918E
:100220001F910F91FF90EF90DF90CF900895FC0108
:10023000918D828D981761F0828DDF01A80FB11D1D
:100240005D968C91928D9F5F9F73928F90E0089541
:100250008FEF9FEF0895FC01918D828D981731F0FB
:10026000828DE80FF11D858D90E008958FEF9FEF4F
:100270000895FC01918D228D892F90E0805C9F4F25
:10028000821B91098F739927089589E791E00E9455
:10029000390121E0892B09F420E0822F0895FC0127
:1002A000848DDF01A80FB11DA35ABF4F2C91848DFF
:1002B00090E001968F739927848FA689B7892C9334
:1002C000A089B1898C9180648C93938D848D9813CF
:1002D00006C00288F389E02D80818F7D8083089598
:1002E000EF92FF920F931F93CF93DF93EC0181E086
:1002F000888F9B8D8C8D981305C0E889F989808142
:1003000085FD24C0F62E0B8D10E00F5F1F4F0F737D
:100310001127E02E8C8DE8120CC00FB607FCFACF27
:10032000E889F989808185FFF5CFCE010E944F01D0
:10033000F1CF8B8DFE01E80FF11DE35AFF4FF082E4
:100340000B8FEA89FB898081806207C0EE89FF8973
:100350006083E889F98980818064808381E090E00E
:10036000DF91CF911F910F91FF90EF900895CF9360
:10037000DF93EC01888D8823C9F0EA89FB898081AD
:1003800085FD05C0A889B9898C9186FD0FC00FB67F
:1003900007FCF5CF808185FFF2CFA889B9898C91C0
:1003A00085FFEDCFCE010E944F01E7CFDF91CF91C6
:1003B000089580E090E0892B29F00E944501811189
:1003C0000C940000089590E0FC01E859FF4F34912F
:1003D000FC01EC55FF4F2491FC01E057FF4FE491E5
:1003E000EE2309F43BC0332339F1333091F038F474
:1003F0003130A9F0323001F584B58F7D12C037302D
:1004000091F03830A1F03430B9F4809180008F7DC4
:1004100003C0809180008F77809380000DC084B5E9
:100420008F7784BD09C08091B0008F7703C0809121
:10043000B0008F7D8093B000F0E0EE0FFF1FE45816
:10044000FF4FA591B4918FB7F894EC91611103C05F
:1004500020952E2301C02E2B2C938FBF08953FB7DC
:10046000F8948091710190917201A0917301B09103
:10047000740126B5A89B05C02F3F19F00196A11D58
:10048000B11D3FBFBA2FA92F982F8827820F911D2A
:10049000A11DB11DBC01CD0142E0660F771F881F71
:1004A000991F4A95D1F70895009769F0FC010190D2
:1004B0000020E9F73197AF01481B590BBC0189E7D0
:1004C00091E00C94EC0080E090E00895CF93C82F69
:1004D0000E94CD00EC2FF0E0E859FF4FE491E330AB
:1004E00019F150F4E130D1F0E230E1F584B58062E9
:1004F00084BD86E988BD3BC0E73011F1E83049F1A1
:10050000E43081F58091800080628093800086E9EC
:1005100090E090938B0080938A0029C084B5806816
:1005200084BD86E987BD23C0809180008068809368
:10053000800086E990E0909389008093880017C03E
:100540008091B00080688093B00086E98093B3000A
:100550000EC08091B00080628093B00086E98093E5
:10056000B40005C061E08C2FCF910C94E301CF91D2
:1005700008950E94CA08FC01808191810C9468074B
:10058000CF93DF93FC0124813581232B71F0FB0194
:10059000DC01CD91DC9160817181CE010E94E8087F
:1005A000009719F08C1B9D0B02C08FEF9FEFDF911E
:1005B000CF910895FC0124813581232B31F421E072
:1005C00061157105A1F0FB0108C0FC0180819181DA
:1005D0006115710531F421E0FC018081882339F037
:1005E00005C00E94D80821E0892B09F020E0822F65
:1005F00008950F931F93CF93DF93EC018881998126
:10060000009729F02A813B812617370788F48B0150
:100610006F5F7F4F0E940008009761F09983888385
:100620001B830A832C813D81232B11F4FC01108252
:1006300081E001C080E0DF91CF911F910F9108957B
:10064000EF92FF920F931F93CF93DF93EC017B0107
:100650008A01BA010E94F9022881398181110DC0F5
:100660002115310519F0C9010E9468071982188205
:100670001D821C821B821A8206C01D830C83B70157
:10068000C9010E94E108CE01DF91CF911F910F9126
:10069000FF90EF900895FC01118210821382128264
:1006A000158214826115710551F0FB010190002043
:1006B000E9F73197AF01461B570B0C9420030895BF
:1006C000BF92CF92DF92EF92FF920F931F93CF933F
:1006D000DF937C016B01EA0189012417350720F4BF
:1006E0008D2FE901042F182F69E371E0C7010E94E3
:1006F0004B03D60114968D919C911597C817D90775
:10070000C8F58017910708F48C01D601ED91FC9192
:100710001197E00FF11FB08010824D915C91BA01EA
:100720006C0F7D1F6115710561F0FB0101900020C8
:10073000E9F73197AF01461B570BC7010E94200311
:1007400013C0F70180819181009711F00E94680722
:10075000D70111961C921E9215961C921E92149708
:1007600013961C921E921297D601ED91FC91E00F08
:10077000F11FB082C701DF91CF911F910F91FF90C0
:10078000EF90DF90CF90BF9008951F920F920FB619
:100790000F9211242F933F934F935F936F937F9307
:1007A0008F939F93AF93BF93EF93FF9389E791E06C
:1007B0000E944F01FF91EF91BF91AF919F918F9157
:1007C0007F916F915F914F913F912F910F900FBE4D
:1007D0000F901F9018951F920F920FB60F92112431
:1007E0002F938F939F93EF93FF93E0918901F09163
:1007F0008A018081E0918F01F091900182FD12C009
:100800009081809192018F5F8F7320919301821765
:1008100051F0E0919201F0E0E758FE4F958F809300
:10082000920101C08081FF91EF919F918F912F9153
:100830000F900FBE0F901F9018951F920F920FB63A
:100840000F9211242F933F938F939F93AF93BF9356
:100850008091750190917601A0917701B091780116
:100860003091700123E0230F2D3720F40196A11D54
:10087000B11D05C026E8230F0296A11DB11D2093CE
:1008800070018093750190937601A0937701B093E6
:1008900078018091710190917201A0917301B091E2
:1008A00074010196A11DB11D809371019093720195
:1008B000A0937301B0937401BF91AF919F918F91F9
:1008C0003F912F910F900FBE0F901F901895CF93CF
:1008D000DF93CDB7DEB7E9970FB6F894DEBF0FBE52
:1008E000CDBF789484B5826084BD84B5816084BDB9
:1008F00085B5826085BD85B5816085BD80916E00BE
:10090000816080936E0010928100809181008260EE
:10091000809381008091810081608093810080912B
:1009200080008160809380008091B100846080931A
:10093000B1008091B00081608093B00080917A0016
:10094000846080937A0080917A00826080937A003C
:1009500080917A00816080937A0080917A0080682B
:1009600080937A001092C1008DE00E94CD00E0914A
:100970008901F0918A0182E08083E0918501F09104
:1009800086011082E0918701F091880180E18083E7
:1009900010929101E0918D01F0918E0186E08083AB
:1009A000E0918B01F0918C01808180618083E091E6
:1009B0008B01F0918C01808188608083E0918B01B4
:1009C000F0918C01808180688083E0918B01F091AF
:1009D0008C0180818F7D808386E191E00E945402AA
:1009E00084E291E00E9454028AE391E00E94540262
:1009F00080E00E94CD0080E00E94CD0080E00E9457
:100A0000CD0080E00E94CD0080E00E94CD0080E01B
:100A10000E94CD0080E00E94CD0080E00E94CD00C9
:100A200080E00E94660280E00E94660280E00E94F0
:100A3000660280E00E9466020E942F024B015C0168
:100A400098EEC92E93E0D92EE12CF12C0E942F02B2
:100A5000DC01CB0188199909AA09BB09883E93409A
:100A6000A105B10558F021E0C21AD108E108F1084A
:100A700088EE880E83E0981EA11CB11CC114D1041D
:100A8000E104F10419F78AE0882E912CA12CB12CF5
:100A900089E791E00E943901181619060CF02BC164
:100AA00069E371E0CE01C4960E944B030E94870067
:100AB00097FD1EC08A309105D9F089831A8208AD4E
:100AC00019AD0F5F1F4FB801CE01C4960E94F90205
:100AD000882361F32CA93DA988AD99ADBE016F5F54
:100AE0007F4F820F931F0E94E10819AF08AFDECF3E
:100AF00068E471E0CE0101960E944B03BE016F5F76
:100B00007F4FCE01C4960E94C00228AD39ADAC0122
:100B10004F5F5F4FBE016C5C7F4FCE018E960E948F
:100B20006003CE0101960E94BB026AE471E0CE012F
:100B30008E960E94DA028111B5C06FE471E0CE0199
:100B40008E960E94DA028111ADC065E571E0CE019A
:100B50008E960E94DA028111A5C06AE571E0CE018D
:100B60008E960E94DA0281119DC068E471E0CE0188
:100B700001960E944B03BE016F5F7F4FCE018E96A0
:100B80000E94C0029C0140E050E0BE01625D7F4FC8
:100B9000CE0188960E946003CE0101960E94BB029E
:100BA0006FE571E0CE0188960E94DA02882309F48D
:100BB00075C068E471E0CE0101960E944B03BE014E
:100BC0006F5F7F4FCE018E960E94C0022AA93BA97B
:100BD000AC014F5F5F4FBE01625D7F4FCE018296D9
:100BE0000E9460038AA19BA1009729F00E9402093C
:100BF0006B017C0103C0C12CD12C7601CE01829601
:100C00000E94BB02CE0101960E94BB020D2C000C7B
:100C1000EE08FF08F7FE26C0E0917901F0917A0115
:100C20000190F081E02D6DE289E791E0099522279E
:100C30003327A9012C193D094E095F0919A28E011C
:100C40000F5D1F4FCA01B901A50194010E94AB06B7
:100C5000605DF80162938F01211531054105510551
:100C600089F715C0A701960119A28E010F5D1F4FCC
:100C7000CA01B901A50194010E94AB06605DF801AB
:100C800062938F01211531054105510589F7C8018E
:100C90000E94540287E391E00E945402CE0188969C
:100CA0000E94BB0265E671E0CE018E960E94DA02D8
:100CB000882369F061E08DE00E94E30188E691E01D
:100CC0000E94540287E391E00E9454020CC06BE63C
:100CD00071E0CE018E960E94DA02882321F060E056
:100CE0008DE00E94E301CE018E960E94BB02CE01F0
:100CF000C4960E94BB020E94D901CACEE9E7F1E086
:100D00001382128288EE93E0A0E0B0E084839583A2
:100D1000A683B7838AE091E09183808385EC90E09D
:100D20009587848784EC90E09787868780EC90E0B5
:100D3000918B808B81EC90E0938B828B82EC90E0A6
:100D4000958B848B86EC90E0978B868B118E128E20
:100D5000138E148E0895A1E21A2EAA1BBB1BFD014F
:100D60000DC0AA1FBB1FEE1FFF1FA217B307E4078A
:100D7000F50720F0A21BB30BE40BF50B661F771FE2
:100D8000881F991F1A9469F76095709580959095C2
:100D90009B01AC01BD01CF010895EE0FFF1F05902F
:100DA000F491E02D0994CF93DF938230910510F4F4
:100DB00082E090E0E0911802F091190220E030E02A
:100DC000C0E0D0E0309711F14081518148175907B8
:100DD000C0F04817590761F482819381209719F078
:100DE0009B838A832BC0909319028093180226C09C
:100DF0002115310519F04217530718F49A01BE0165
:100E0000DF01EF010280F381E02DDCCF21153105F8
:100E100009F1281B390B2430310590F412968D917D
:100E20009C9113976115710521F0FB0193838283D7
:100E300004C09093190280931802FD01329644C0B9
:100E4000FD01E20FF31F81939193225031092D93FD
:100E50003C933AC02091160230911702232B41F4A3
:100E60002091020130910301309317022093160262
:100E700020910001309101012115310541F42DB778
:100E80003EB74091040150910501241B350BE091C0
:100E90001602F0911702E217F307A0F42E1B3F0B86
:100EA0002817390778F0AC014E5F5F4F24173507DC
:100EB00048F04E0F5F1F5093170240931602819324
:100EC000919302C0E0E0F0E0CF01DF91CF9108956F
:100ED0000F931F93CF93DF93009709F48CC0FC010D
:100EE0003297138212820091180210911902011593
:100EF000110581F420813181820F931F2091160208
:100F0000309117022817390779F5F0931702E0930B
:100F1000160271C0D80140E050E0AE17BF0750F490
:100F200012962D913C911397AD012115310509F1D0
:100F3000D901F3CF9D01DA0133832283608171816E
:100F4000860F971F8217930769F4EC012881398176
:100F5000260F371F2E5F3F4F318320838A819B816D
:100F600093838283452B29F4F0931902E0931802AE
:100F700042C01396FC93EE931297ED01499159915B
:100F80009E01240F351FE217F30771F480819181D0
:100F9000840F951F029611969C938E938281938164
:100FA00013969C938E931297E0E0F0E0D80112968E
:100FB0008D919C911397009719F0F8018C01F6CF51
:100FC0008D919C9198012E5F3F4F820F931F20912E
:100FD0001602309117022817390769F4309729F45F
:100FE000109219021092180202C0138212821093FA
:100FF000170200931602DF91CF911F910F91089570
:10100000A0E0B0E0E6E0F8E00C944209EC010097C3
:1010100021F4CB010E94D306B8C0FC01E60FF71FF4
:101020009C0122503109E217F30708F4ACC0D90142
:101030000D911C91119706171707B0F00530110597
:1010400008F49FC0C80104978617970708F499C051
:1010500002501109061B170B019311936D937C939A
:10106000CF010E9468078DC05B01A01AB10A4C0134
:10107000800E911EA0911802B091190240E050E03C
:10108000E12CF12C109709F44AC0A815B905D1F547
:101090006D907C901197630182E0C80ED11CCA1438
:1010A000DB0480F1A3014A195B096A0182E0C80EE2
:1010B000D11C1296BC9012971396AC91B5E0CB164A
:1010C000D10440F0B282A38351834083D9016D9350
:1010D0007C930AC00E5F1F4FC301800F911FF9015F
:1010E00091838083EB2DFA2FE114F10431F0D701C5
:1010F0001396FC93EE93129744C0F0931902E09379
:1011000018023FC08D919C9111974817590708F418
:10111000AC017D0112960D90BC91A02DB3CF8091B2
:1011200016029091170288159905E1F446175707A2
:10113000C8F48091000190910101009741F48DB7AE
:101140009EB74091040150910501841B950BE8174F
:10115000F907C8F4F0931702E0931602F9017183BE
:1011600060830FC0CB010E94D3067C01009759F029
:10117000A801BE010E94CF08CE010E946807C701E6
:1011800004C0CE0102C080E090E0CDB7DEB7EEE053
:101190000C945E0981E090E0F8940C947509FB01D1
:1011A000DC0102C001900D9241505040D8F70895E3
:1011B000FB01DC018D91019080190110D9F3990B8D
:1011C0000895FB01DC0101900D920020E1F70895E4
:1011D000FB0151915523A9F0BF01DC014D91451749
:1011E0004111E1F759F4CD010190002049F04D91F2
:1011F00040154111C9F3FB014111EFCF81E090E0AF
:10120000019708951F93FC0199278827BC01E89452
:1012100011911032E9F3193010F01E30C8F31B326F
:1012200051F01D3249F4689406C00E942909610FEB
:10123000711D811D911D119110531A30B0F33EF4B0
:1012400090958095709561957F4F8F4F9F4F1F911F
:101250000895592F482F372F262F660F771F881F85
:10126000991F660F771F881F991F620F731F841FB6
:10127000951F660F771F881F991F08952F923F9221
:101280004F925F926F927F928F929F92AF92BF9296
:10129000CF92DF92EF92FF920F931F93CF93DF9342
:1012A000CDB7DEB7CA1BDB0B0FB6F894DEBF0FBE9F
:1012B000CDBF09942A88398848885F846E847D84EC
:1012C0008C849B84AA84B984C884DF80EE80FD80EE
:1012D0000C811B81AA81B981CE0FD11D0FB6F89464
:0E12E000DEBF0FBECDBFED010895F894FFCF25
:1012EE0000001A028000000000007001EC003901BD
:1012FE0017012B01B70141542B4349504D55583D11
:10130E00310D0A0041542B43495053455256455214
:10131E003D312C383038300D0A0041542B434950A2
:10132E0053544F3D300D0A003A006C6566740072DE
:10133E00696768740066726F6D006261636B00733B
:10134E0070656564006F6E004154006F6666000044
:107E0000112484B714BE81FFF0D085E080938100F7
:107E100082E08093C00088E18093C10086E0809377
:107E2000C20080E18093C4008EE0C9D0259A86E02C
:107E300020E33CEF91E0309385002093840096BBD3
:107E4000B09BFECF1D9AA8958150A9F7CC24DD24C4
:107E500088248394B5E0AB2EA1E19A2EF3E0BF2EE7
:107E6000A2D0813461F49FD0082FAFD0023811F036
:107E7000013811F484E001C083E08DD089C08234E0
:107E800011F484E103C0853419F485E0A6D080C0E4
:107E9000853579F488D0E82EFF2485D0082F10E0AE
:107EA000102F00270E291F29000F111F8ED06801E7
:107EB0006FC0863521F484E090D080E0DECF843638
:107EC00009F040C070D06FD0082F6DD080E0C81688
:107ED00080E7D80618F4F601B7BEE895C0E0D1E017
:107EE00062D089930C17E1F7F0E0CF16F0E7DF06D8
:107EF00018F0F601B7BEE89568D007B600FCFDCFD4
:107F0000A601A0E0B1E02C9130E011968C91119780
:107F100090E0982F8827822B932B1296FA010C0160
:107F200087BEE89511244E5F5F4FF1E0A038BF0790
:107F300051F7F601A7BEE89507B600FCFDCF97BE46
:107F4000E89526C08437B1F42ED02DD0F82E2BD052
:107F50003CD0F601EF2C8F010F5F1F4F84911BD097
:107F6000EA94F801C1F70894C11CD11CFA94CF0C13
:107F7000D11C0EC0853739F428D08EE10CD085E9AC
:107F80000AD08FE07ACF813511F488E018D01DD067
:107F900080E101D065CF982F8091C00085FFFCCF94
:107FA0009093C60008958091C00087FFFCCF809118
:107FB000C00084FD01C0A8958091C6000895E0E648
:107FC000F0E098E1908380830895EDDF803219F02E
:107FD00088E0F5DFFFCF84E1DECF1F93182FE3DFCA
:107FE0001150E9F7F2DF1F91089580E0E8DFEE27F6
:047FF000FF270994CA
:027FFE00040479
:0400000300007E007B
:00000001FF
